{
  "_format": "hh-sol-artifact-1",
  "contractName": "INKCoin",
  "sourceName": "contracts/InkCoin.sol",
  "abi": [
    {
      "inputs": [],
      "stateMutability": "nonpayable",
      "type": "constructor"
    },
    {
      "anonymous": false,
      "inputs": [
        {
          "indexed": true,
          "internalType": "address",
          "name": "owner",
          "type": "address"
        },
        {
          "indexed": true,
          "internalType": "address",
          "name": "spender",
          "type": "address"
        },
        {
          "indexed": false,
          "internalType": "uint256",
          "name": "value",
          "type": "uint256"
        }
      ],
      "name": "Approval",
      "type": "event"
    },
    {
      "anonymous": false,
      "inputs": [
        {
          "indexed": true,
          "internalType": "address",
          "name": "previousOwner",
          "type": "address"
        },
        {
          "indexed": true,
          "internalType": "address",
          "name": "newOwner",
          "type": "address"
        }
      ],
      "name": "OwnershipTransferred",
      "type": "event"
    },
    {
      "anonymous": false,
      "inputs": [
        {
          "indexed": true,
          "internalType": "address",
          "name": "from",
          "type": "address"
        },
        {
          "indexed": true,
          "internalType": "address",
          "name": "to",
          "type": "address"
        },
        {
          "indexed": false,
          "internalType": "uint256",
          "name": "value",
          "type": "uint256"
        }
      ],
      "name": "Transfer",
      "type": "event"
    },
    {
      "inputs": [
        {
          "internalType": "address",
          "name": "controller",
          "type": "address"
        }
      ],
      "name": "addController",
      "outputs": [],
      "stateMutability": "nonpayable",
      "type": "function"
    },
    {
      "inputs": [
        {
          "internalType": "address",
          "name": "owner",
          "type": "address"
        },
        {
          "internalType": "address",
          "name": "spender",
          "type": "address"
        }
      ],
      "name": "allowance",
      "outputs": [
        {
          "internalType": "uint256",
          "name": "",
          "type": "uint256"
        }
      ],
      "stateMutability": "view",
      "type": "function"
    },
    {
      "inputs": [
        {
          "internalType": "address",
          "name": "spender",
          "type": "address"
        },
        {
          "internalType": "uint256",
          "name": "amount",
          "type": "uint256"
        }
      ],
      "name": "approve",
      "outputs": [
        {
          "internalType": "bool",
          "name": "",
          "type": "bool"
        }
      ],
      "stateMutability": "nonpayable",
      "type": "function"
    },
    {
      "inputs": [
        {
          "internalType": "address",
          "name": "account",
          "type": "address"
        }
      ],
      "name": "balanceOf",
      "outputs": [
        {
          "internalType": "uint256",
          "name": "",
          "type": "uint256"
        }
      ],
      "stateMutability": "view",
      "type": "function"
    },
    {
      "inputs": [
        {
          "internalType": "address",
          "name": "from",
          "type": "address"
        },
        {
          "internalType": "uint256",
          "name": "amount",
          "type": "uint256"
        }
      ],
      "name": "burn",
      "outputs": [],
      "stateMutability": "nonpayable",
      "type": "function"
    },
    {
      "inputs": [
        {
          "internalType": "address",
          "name": "",
          "type": "address"
        }
      ],
      "name": "controllers",
      "outputs": [
        {
          "internalType": "bool",
          "name": "",
          "type": "bool"
        }
      ],
      "stateMutability": "view",
      "type": "function"
    },
    {
      "inputs": [],
      "name": "decimals",
      "outputs": [
        {
          "internalType": "uint8",
          "name": "",
          "type": "uint8"
        }
      ],
      "stateMutability": "view",
      "type": "function"
    },
    {
      "inputs": [
        {
          "internalType": "address",
          "name": "spender",
          "type": "address"
        },
        {
          "internalType": "uint256",
          "name": "subtractedValue",
          "type": "uint256"
        }
      ],
      "name": "decreaseAllowance",
      "outputs": [
        {
          "internalType": "bool",
          "name": "",
          "type": "bool"
        }
      ],
      "stateMutability": "nonpayable",
      "type": "function"
    },
    {
      "inputs": [
        {
          "internalType": "address",
          "name": "spender",
          "type": "address"
        },
        {
          "internalType": "uint256",
          "name": "addedValue",
          "type": "uint256"
        }
      ],
      "name": "increaseAllowance",
      "outputs": [
        {
          "internalType": "bool",
          "name": "",
          "type": "bool"
        }
      ],
      "stateMutability": "nonpayable",
      "type": "function"
    },
    {
      "inputs": [],
      "name": "initialize",
      "outputs": [],
      "stateMutability": "nonpayable",
      "type": "function"
    },
    {
      "inputs": [
        {
          "internalType": "address",
          "name": "_adr",
          "type": "address"
        }
      ],
      "name": "isController",
      "outputs": [
        {
          "internalType": "bool",
          "name": "",
          "type": "bool"
        }
      ],
      "stateMutability": "view",
      "type": "function"
    },
    {
      "inputs": [
        {
          "internalType": "address",
          "name": "to",
          "type": "address"
        },
        {
          "internalType": "uint256",
          "name": "amount",
          "type": "uint256"
        }
      ],
      "name": "mint",
      "outputs": [],
      "stateMutability": "nonpayable",
      "type": "function"
    },
    {
      "inputs": [],
      "name": "name",
      "outputs": [
        {
          "internalType": "string",
          "name": "",
          "type": "string"
        }
      ],
      "stateMutability": "view",
      "type": "function"
    },
    {
      "inputs": [],
      "name": "owner",
      "outputs": [
        {
          "internalType": "address",
          "name": "",
          "type": "address"
        }
      ],
      "stateMutability": "view",
      "type": "function"
    },
    {
      "inputs": [
        {
          "internalType": "address",
          "name": "controller",
          "type": "address"
        }
      ],
      "name": "removeController",
      "outputs": [],
      "stateMutability": "nonpayable",
      "type": "function"
    },
    {
      "inputs": [],
      "name": "renounceOwnership",
      "outputs": [],
      "stateMutability": "nonpayable",
      "type": "function"
    },
    {
      "inputs": [],
      "name": "symbol",
      "outputs": [
        {
          "internalType": "string",
          "name": "",
          "type": "string"
        }
      ],
      "stateMutability": "view",
      "type": "function"
    },
    {
      "inputs": [],
      "name": "totalSupply",
      "outputs": [
        {
          "internalType": "uint256",
          "name": "",
          "type": "uint256"
        }
      ],
      "stateMutability": "view",
      "type": "function"
    },
    {
      "inputs": [
        {
          "internalType": "address",
          "name": "recipient",
          "type": "address"
        },
        {
          "internalType": "uint256",
          "name": "amount",
          "type": "uint256"
        }
      ],
      "name": "transfer",
      "outputs": [
        {
          "internalType": "bool",
          "name": "",
          "type": "bool"
        }
      ],
      "stateMutability": "nonpayable",
      "type": "function"
    },
    {
      "inputs": [
        {
          "internalType": "address",
          "name": "sender",
          "type": "address"
        },
        {
          "internalType": "address",
          "name": "recipient",
          "type": "address"
        },
        {
          "internalType": "uint256",
          "name": "amount",
          "type": "uint256"
        }
      ],
      "name": "transferFrom",
      "outputs": [
        {
          "internalType": "bool",
          "name": "",
          "type": "bool"
        }
      ],
      "stateMutability": "nonpayable",
      "type": "function"
    },
    {
      "inputs": [
        {
          "internalType": "address",
          "name": "newOwner",
          "type": "address"
        }
      ],
      "name": "transferOwnership",
      "outputs": [],
      "stateMutability": "nonpayable",
      "type": "function"
    }
  ],
  "bytecode": "0x60806040523480156200001157600080fd5b506040518060400160405280600381526020017f494e4b00000000000000000000000000000000000000000000000000000000008152506040518060400160405280600381526020017f494e4b000000000000000000000000000000000000000000000000000000000081525081600390805190602001906200009692919062000395565b508060049080519060200190620000af92919062000395565b505050620000d2620000c66200014460201b60201c565b6200014c60201b60201c565b6001600660003373ffffffffffffffffffffffffffffffffffffffff1673ffffffffffffffffffffffffffffffffffffffff16815260200190815260200160002060006101000a81548160ff0219169083151502179055506200013e336127106200021260201b60201c565b620005f1565b600033905090565b6000600560009054906101000a900473ffffffffffffffffffffffffffffffffffffffff16905081600560006101000a81548173ffffffffffffffffffffffffffffffffffffffff021916908373ffffffffffffffffffffffffffffffffffffffff1602179055508173ffffffffffffffffffffffffffffffffffffffff168173ffffffffffffffffffffffffffffffffffffffff167f8be0079c531659141344cd1fd0a4f28419497f9722a3daafe3b4186f6b6457e060405160405180910390a35050565b600073ffffffffffffffffffffffffffffffffffffffff168273ffffffffffffffffffffffffffffffffffffffff16141562000285576040517f08c379a00000000000000000000000000000000000000000000000000000000081526004016200027c906200047d565b60405180910390fd5b62000299600083836200038b60201b60201c565b8060026000828254620002ad9190620004cd565b92505081905550806000808473ffffffffffffffffffffffffffffffffffffffff1673ffffffffffffffffffffffffffffffffffffffff1681526020019081526020016000206000828254620003049190620004cd565b925050819055508173ffffffffffffffffffffffffffffffffffffffff16600073ffffffffffffffffffffffffffffffffffffffff167fddf252ad1be2c89b69c2b068fc378daa952ba7f163c4a11628f55a4df523b3ef836040516200036b91906200049f565b60405180910390a362000387600083836200039060201b60201c565b5050565b505050565b505050565b828054620003a39062000534565b90600052602060002090601f016020900481019282620003c7576000855562000413565b82601f10620003e257805160ff191683800117855562000413565b8280016001018555821562000413579182015b8281111562000412578251825591602001919060010190620003f5565b5b50905062000422919062000426565b5090565b5b808211156200044157600081600090555060010162000427565b5090565b600062000454601f83620004bc565b91506200046182620005c8565b602082019050919050565b62000477816200052a565b82525050565b60006020820190508181036000830152620004988162000445565b9050919050565b6000602082019050620004b660008301846200046c565b92915050565b600082825260208201905092915050565b6000620004da826200052a565b9150620004e7836200052a565b9250827fffffffffffffffffffffffffffffffffffffffffffffffffffffffffffffffff038211156200051f576200051e6200056a565b5b828201905092915050565b6000819050919050565b600060028204905060018216806200054d57607f821691505b6020821081141562000564576200056362000599565b5b50919050565b7f4e487b7100000000000000000000000000000000000000000000000000000000600052601160045260246000fd5b7f4e487b7100000000000000000000000000000000000000000000000000000000600052602260045260246000fd5b7f45524332303a206d696e7420746f20746865207a65726f206164647265737300600082015250565b61227780620006016000396000f3fe608060405234801561001057600080fd5b50600436106101375760003560e01c80638da5cb5b116100b8578063a9059cbb1161007c578063a9059cbb1461032a578063b429afeb1461035a578063da8c229e1461038a578063dd62ed3e146103ba578063f2fde38b146103ea578063f6a74ed71461040657610137565b80638da5cb5b1461028657806395d89b41146102a45780639dc29fac146102c2578063a457c2d7146102de578063a7fc7a071461030e57610137565b806339509351116100ff57806339509351146101f657806340c10f191461022657806370a0823114610242578063715018a6146102725780638129fc1c1461027c57610137565b806306fdde031461013c578063095ea7b31461015a57806318160ddd1461018a57806323b872dd146101a8578063313ce567146101d8575b600080fd5b610144610422565b6040516101519190611a72565b60405180910390f35b610174600480360381019061016f91906117a1565b6104b4565b6040516101819190611a57565b60405180910390f35b6101926104d2565b60405161019f9190611c54565b60405180910390f35b6101c260048036038101906101bd9190611752565b6104dc565b6040516101cf9190611a57565b60405180910390f35b6101e06105d4565b6040516101ed9190611c6f565b60405180910390f35b610210600480360381019061020b91906117a1565b6105dd565b60405161021d9190611a57565b60405180910390f35b610240600480360381019061023b91906117a1565b610689565b005b61025c600480360381019061025791906116ed565b610723565b6040516102699190611c54565b60405180910390f35b61027a61076b565b005b6102846107f3565b005b61028e610866565b60405161029b9190611a3c565b60405180910390f35b6102ac610890565b6040516102b99190611a72565b60405180910390f35b6102dc60048036038101906102d791906117a1565b610922565b005b6102f860048036038101906102f391906117a1565b6109bc565b6040516103059190611a57565b60405180910390f35b610328600480360381019061032391906116ed565b610aa7565b005b610344600480360381019061033f91906117a1565b610b7e565b6040516103519190611a57565b60405180910390f35b610374600480360381019061036f91906116ed565b610b9c565b6040516103819190611a57565b60405180910390f35b6103a4600480360381019061039f91906116ed565b610bf2565b6040516103b19190611a57565b60405180910390f35b6103d460048036038101906103cf9190611716565b610c12565b6040516103e19190611c54565b60405180910390f35b61040460048036038101906103ff91906116ed565b610c99565b005b610420600480360381019061041b91906116ed565b610d91565b005b60606003805461043190611db8565b80601f016020809104026020016040519081016040528092919081815260200182805461045d90611db8565b80156104aa5780601f1061047f576101008083540402835291602001916104aa565b820191906000526020600020905b81548152906001019060200180831161048d57829003601f168201915b5050505050905090565b60006104c86104c1610e68565b8484610e70565b6001905092915050565b6000600254905090565b60006104e984848461103b565b6000600160008673ffffffffffffffffffffffffffffffffffffffff1673ffffffffffffffffffffffffffffffffffffffff1681526020019081526020016000206000610534610e68565b73ffffffffffffffffffffffffffffffffffffffff1673ffffffffffffffffffffffffffffffffffffffff168152602001908152602001600020549050828110156105b4576040517f08c379a00000000000000000000000000000000000000000000000000000000081526004016105ab90611b74565b60405180910390fd5b6105c8856105c0610e68565b858403610e70565b60019150509392505050565b60006012905090565b600061067f6105ea610e68565b8484600160006105f8610e68565b73ffffffffffffffffffffffffffffffffffffffff1673ffffffffffffffffffffffffffffffffffffffff16815260200190815260200160002060008873ffffffffffffffffffffffffffffffffffffffff1673ffffffffffffffffffffffffffffffffffffffff1681526020019081526020016000205461067a9190611ca6565b610e70565b6001905092915050565b600660003373ffffffffffffffffffffffffffffffffffffffff1673ffffffffffffffffffffffffffffffffffffffff16815260200190815260200160002060009054906101000a900460ff16610715576040517f08c379a000000000000000000000000000000000000000000000000000000000815260040161070c90611b34565b60405180910390fd5b61071f82826112bc565b5050565b60008060008373ffffffffffffffffffffffffffffffffffffffff1673ffffffffffffffffffffffffffffffffffffffff168152602001908152602001600020549050919050565b610773610e68565b73ffffffffffffffffffffffffffffffffffffffff16610791610866565b73ffffffffffffffffffffffffffffffffffffffff16146107e7576040517f08c379a00000000000000000000000000000000000000000000000000000000081526004016107de90611b94565b60405180910390fd5b6107f1600061141c565b565b60006107fd610e68565b90506108088161141c565b8073ffffffffffffffffffffffffffffffffffffffff16600073ffffffffffffffffffffffffffffffffffffffff167f8be0079c531659141344cd1fd0a4f28419497f9722a3daafe3b4186f6b6457e060405160405180910390a350565b6000600560009054906101000a900473ffffffffffffffffffffffffffffffffffffffff16905090565b60606004805461089f90611db8565b80601f01602080910402602001604051908101604052809291908181526020018280546108cb90611db8565b80156109185780601f106108ed57610100808354040283529160200191610918565b820191906000526020600020905b8154815290600101906020018083116108fb57829003601f168201915b5050505050905090565b600660003373ffffffffffffffffffffffffffffffffffffffff1673ffffffffffffffffffffffffffffffffffffffff16815260200190815260200160002060009054906101000a900460ff166109ae576040517f08c379a00000000000000000000000000000000000000000000000000000000081526004016109a590611b54565b60405180910390fd5b6109b882826114e2565b5050565b600080600160006109cb610e68565b73ffffffffffffffffffffffffffffffffffffffff1673ffffffffffffffffffffffffffffffffffffffff16815260200190815260200160002060008573ffffffffffffffffffffffffffffffffffffffff1673ffffffffffffffffffffffffffffffffffffffff16815260200190815260200160002054905082811015610a88576040517f08c379a0000000000000000000000000000000000000000000000000000000008152600401610a7f90611c14565b60405180910390fd5b610a9c610a93610e68565b85858403610e70565b600191505092915050565b610aaf610e68565b73ffffffffffffffffffffffffffffffffffffffff16610acd610866565b73ffffffffffffffffffffffffffffffffffffffff1614610b23576040517f08c379a0000000000000000000000000000000000000000000000000000000008152600401610b1a90611b94565b60405180910390fd5b6001600660008373ffffffffffffffffffffffffffffffffffffffff1673ffffffffffffffffffffffffffffffffffffffff16815260200190815260200160002060006101000a81548160ff02191690831515021790555050565b6000610b92610b8b610e68565b848461103b565b6001905092915050565b6000600660008373ffffffffffffffffffffffffffffffffffffffff1673ffffffffffffffffffffffffffffffffffffffff16815260200190815260200160002060009054906101000a900460ff169050919050565b60066020528060005260406000206000915054906101000a900460ff1681565b6000600160008473ffffffffffffffffffffffffffffffffffffffff1673ffffffffffffffffffffffffffffffffffffffff16815260200190815260200160002060008373ffffffffffffffffffffffffffffffffffffffff1673ffffffffffffffffffffffffffffffffffffffff16815260200190815260200160002054905092915050565b610ca1610e68565b73ffffffffffffffffffffffffffffffffffffffff16610cbf610866565b73ffffffffffffffffffffffffffffffffffffffff1614610d15576040517f08c379a0000000000000000000000000000000000000000000000000000000008152600401610d0c90611b94565b60405180910390fd5b600073ffffffffffffffffffffffffffffffffffffffff168173ffffffffffffffffffffffffffffffffffffffff161415610d85576040517f08c379a0000000000000000000000000000000000000000000000000000000008152600401610d7c90611ad4565b60405180910390fd5b610d8e8161141c565b50565b610d99610e68565b73ffffffffffffffffffffffffffffffffffffffff16610db7610866565b73ffffffffffffffffffffffffffffffffffffffff1614610e0d576040517f08c379a0000000000000000000000000000000000000000000000000000000008152600401610e0490611b94565b60405180910390fd5b6000600660008373ffffffffffffffffffffffffffffffffffffffff1673ffffffffffffffffffffffffffffffffffffffff16815260200190815260200160002060006101000a81548160ff02191690831515021790555050565b600033905090565b600073ffffffffffffffffffffffffffffffffffffffff168373ffffffffffffffffffffffffffffffffffffffff161415610ee0576040517f08c379a0000000000000000000000000000000000000000000000000000000008152600401610ed790611bf4565b60405180910390fd5b600073ffffffffffffffffffffffffffffffffffffffff168273ffffffffffffffffffffffffffffffffffffffff161415610f50576040517f08c379a0000000000000000000000000000000000000000000000000000000008152600401610f4790611af4565b60405180910390fd5b80600160008573ffffffffffffffffffffffffffffffffffffffff1673ffffffffffffffffffffffffffffffffffffffff16815260200190815260200160002060008473ffffffffffffffffffffffffffffffffffffffff1673ffffffffffffffffffffffffffffffffffffffff168152602001908152602001600020819055508173ffffffffffffffffffffffffffffffffffffffff168373ffffffffffffffffffffffffffffffffffffffff167f8c5be1e5ebec7d5bd14f71427d1e84f3dd0314c0f7b2291e5b200ac8c7c3b9258360405161102e9190611c54565b60405180910390a3505050565b600073ffffffffffffffffffffffffffffffffffffffff168373ffffffffffffffffffffffffffffffffffffffff1614156110ab576040517f08c379a00000000000000000000000000000000000000000000000000000000081526004016110a290611bd4565b60405180910390fd5b600073ffffffffffffffffffffffffffffffffffffffff168273ffffffffffffffffffffffffffffffffffffffff16141561111b576040517f08c379a000000000000000000000000000000000000000000000000000000000815260040161111290611a94565b60405180910390fd5b6111268383836116b9565b60008060008573ffffffffffffffffffffffffffffffffffffffff1673ffffffffffffffffffffffffffffffffffffffff168152602001908152602001600020549050818110156111ac576040517f08c379a00000000000000000000000000000000000000000000000000000000081526004016111a390611b14565b60405180910390fd5b8181036000808673ffffffffffffffffffffffffffffffffffffffff1673ffffffffffffffffffffffffffffffffffffffff16815260200190815260200160002081905550816000808573ffffffffffffffffffffffffffffffffffffffff1673ffffffffffffffffffffffffffffffffffffffff168152602001908152602001600020600082825461123f9190611ca6565b925050819055508273ffffffffffffffffffffffffffffffffffffffff168473ffffffffffffffffffffffffffffffffffffffff167fddf252ad1be2c89b69c2b068fc378daa952ba7f163c4a11628f55a4df523b3ef846040516112a39190611c54565b60405180910390a36112b68484846116be565b50505050565b600073ffffffffffffffffffffffffffffffffffffffff168273ffffffffffffffffffffffffffffffffffffffff16141561132c576040517f08c379a000000000000000000000000000000000000000000000000000000000815260040161132390611c34565b60405180910390fd5b611338600083836116b9565b806002600082825461134a9190611ca6565b92505081905550806000808473ffffffffffffffffffffffffffffffffffffffff1673ffffffffffffffffffffffffffffffffffffffff168152602001908152602001600020600082825461139f9190611ca6565b925050819055508173ffffffffffffffffffffffffffffffffffffffff16600073ffffffffffffffffffffffffffffffffffffffff167fddf252ad1be2c89b69c2b068fc378daa952ba7f163c4a11628f55a4df523b3ef836040516114049190611c54565b60405180910390a3611418600083836116be565b5050565b6000600560009054906101000a900473ffffffffffffffffffffffffffffffffffffffff16905081600560006101000a81548173ffffffffffffffffffffffffffffffffffffffff021916908373ffffffffffffffffffffffffffffffffffffffff1602179055508173ffffffffffffffffffffffffffffffffffffffff168173ffffffffffffffffffffffffffffffffffffffff167f8be0079c531659141344cd1fd0a4f28419497f9722a3daafe3b4186f6b6457e060405160405180910390a35050565b600073ffffffffffffffffffffffffffffffffffffffff168273ffffffffffffffffffffffffffffffffffffffff161415611552576040517f08c379a000000000000000000000000000000000000000000000000000000000815260040161154990611bb4565b60405180910390fd5b61155e826000836116b9565b60008060008473ffffffffffffffffffffffffffffffffffffffff1673ffffffffffffffffffffffffffffffffffffffff168152602001908152602001600020549050818110156115e4576040517f08c379a00000000000000000000000000000000000000000000000000000000081526004016115db90611ab4565b60405180910390fd5b8181036000808573ffffffffffffffffffffffffffffffffffffffff1673ffffffffffffffffffffffffffffffffffffffff16815260200190815260200160002081905550816002600082825461163b9190611cfc565b92505081905550600073ffffffffffffffffffffffffffffffffffffffff168373ffffffffffffffffffffffffffffffffffffffff167fddf252ad1be2c89b69c2b068fc378daa952ba7f163c4a11628f55a4df523b3ef846040516116a09190611c54565b60405180910390a36116b4836000846116be565b505050565b505050565b505050565b6000813590506116d281612213565b92915050565b6000813590506116e78161222a565b92915050565b6000602082840312156116ff57600080fd5b600061170d848285016116c3565b91505092915050565b6000806040838503121561172957600080fd5b6000611737858286016116c3565b9250506020611748858286016116c3565b9150509250929050565b60008060006060848603121561176757600080fd5b6000611775868287016116c3565b9350506020611786868287016116c3565b9250506040611797868287016116d8565b9150509250925092565b600080604083850312156117b457600080fd5b60006117c2858286016116c3565b92505060206117d3858286016116d8565b9150509250929050565b6117e681611d30565b82525050565b6117f581611d42565b82525050565b600061180682611c8a565b6118108185611c95565b9350611820818560208601611d85565b61182981611e48565b840191505092915050565b6000611841602383611c95565b915061184c82611e59565b604082019050919050565b6000611864602283611c95565b915061186f82611ea8565b604082019050919050565b6000611887602683611c95565b915061189282611ef7565b604082019050919050565b60006118aa602283611c95565b91506118b582611f46565b604082019050919050565b60006118cd602683611c95565b91506118d882611f95565b604082019050919050565b60006118f0601983611c95565b91506118fb82611fe4565b602082019050919050565b6000611913601983611c95565b915061191e8261200d565b602082019050919050565b6000611936602883611c95565b915061194182612036565b604082019050919050565b6000611959602083611c95565b915061196482612085565b602082019050919050565b600061197c602183611c95565b9150611987826120ae565b604082019050919050565b600061199f602583611c95565b91506119aa826120fd565b604082019050919050565b60006119c2602483611c95565b91506119cd8261214c565b604082019050919050565b60006119e5602583611c95565b91506119f08261219b565b604082019050919050565b6000611a08601f83611c95565b9150611a13826121ea565b602082019050919050565b611a2781611d6e565b82525050565b611a3681611d78565b82525050565b6000602082019050611a5160008301846117dd565b92915050565b6000602082019050611a6c60008301846117ec565b92915050565b60006020820190508181036000830152611a8c81846117fb565b905092915050565b60006020820190508181036000830152611aad81611834565b9050919050565b60006020820190508181036000830152611acd81611857565b9050919050565b60006020820190508181036000830152611aed8161187a565b9050919050565b60006020820190508181036000830152611b0d8161189d565b9050919050565b60006020820190508181036000830152611b2d816118c0565b9050919050565b60006020820190508181036000830152611b4d816118e3565b9050919050565b60006020820190508181036000830152611b6d81611906565b9050919050565b60006020820190508181036000830152611b8d81611929565b9050919050565b60006020820190508181036000830152611bad8161194c565b9050919050565b60006020820190508181036000830152611bcd8161196f565b9050919050565b60006020820190508181036000830152611bed81611992565b9050919050565b60006020820190508181036000830152611c0d816119b5565b9050919050565b60006020820190508181036000830152611c2d816119d8565b9050919050565b60006020820190508181036000830152611c4d816119fb565b9050919050565b6000602082019050611c696000830184611a1e565b92915050565b6000602082019050611c846000830184611a2d565b92915050565b600081519050919050565b600082825260208201905092915050565b6000611cb182611d6e565b9150611cbc83611d6e565b9250827fffffffffffffffffffffffffffffffffffffffffffffffffffffffffffffffff03821115611cf157611cf0611dea565b5b828201905092915050565b6000611d0782611d6e565b9150611d1283611d6e565b925082821015611d2557611d24611dea565b5b828203905092915050565b6000611d3b82611d4e565b9050919050565b60008115159050919050565b600073ffffffffffffffffffffffffffffffffffffffff82169050919050565b6000819050919050565b600060ff82169050919050565b60005b83811015611da3578082015181840152602081019050611d88565b83811115611db2576000848401525b50505050565b60006002820490506001821680611dd057607f821691505b60208210811415611de457611de3611e19565b5b50919050565b7f4e487b7100000000000000000000000000000000000000000000000000000000600052601160045260246000fd5b7f4e487b7100000000000000000000000000000000000000000000000000000000600052602260045260246000fd5b6000601f19601f8301169050919050565b7f45524332303a207472616e7366657220746f20746865207a65726f206164647260008201527f6573730000000000000000000000000000000000000000000000000000000000602082015250565b7f45524332303a206275726e20616d6f756e7420657863656564732062616c616e60008201527f6365000000000000000000000000000000000000000000000000000000000000602082015250565b7f4f776e61626c653a206e6577206f776e657220697320746865207a65726f206160008201527f6464726573730000000000000000000000000000000000000000000000000000602082015250565b7f45524332303a20617070726f766520746f20746865207a65726f20616464726560008201527f7373000000000000000000000000000000000000000000000000000000000000602082015250565b7f45524332303a207472616e7366657220616d6f756e742065786365656473206260008201527f616c616e63650000000000000000000000000000000000000000000000000000602082015250565b7f4f6e6c7920636f6e74726f6c6c6572732063616e206d696e7400000000000000600082015250565b7f4f6e6c7920636f6e74726f6c6c6572732063616e206275726e00000000000000600082015250565b7f45524332303a207472616e7366657220616d6f756e742065786365656473206160008201527f6c6c6f77616e6365000000000000000000000000000000000000000000000000602082015250565b7f4f776e61626c653a2063616c6c6572206973206e6f7420746865206f776e6572600082015250565b7f45524332303a206275726e2066726f6d20746865207a65726f2061646472657360008201527f7300000000000000000000000000000000000000000000000000000000000000602082015250565b7f45524332303a207472616e736665722066726f6d20746865207a65726f20616460008201527f6472657373000000000000000000000000000000000000000000000000000000602082015250565b7f45524332303a20617070726f76652066726f6d20746865207a65726f2061646460008201527f7265737300000000000000000000000000000000000000000000000000000000602082015250565b7f45524332303a2064656372656173656420616c6c6f77616e63652062656c6f7760008201527f207a65726f000000000000000000000000000000000000000000000000000000602082015250565b7f45524332303a206d696e7420746f20746865207a65726f206164647265737300600082015250565b61221c81611d30565b811461222757600080fd5b50565b61223381611d6e565b811461223e57600080fd5b5056fea2646970667358221220823969ff3dd93983a0d46f7c9511aa580cfc9396917d87fa4e8b506bafe40cf564736f6c63430008040033",
  "linkReferences": {},
  "deployedLinkReferences": {}
}