{
  "_format": "hh-sol-artifact-1",
  "contractName": "UpgradableProxy",
  "sourceName": "contracts/UpgradeableProxy.sol",
  "abi": [
    {
      "inputs": [],
      "stateMutability": "nonpayable",
      "type": "constructor"
    },
    {
      "stateMutability": "payable",
      "type": "fallback"
    },
    {
      "inputs": [],
      "name": "implementation",
      "outputs": [
        {
          "internalType": "address",
          "name": "",
          "type": "address"
        }
      ],
      "stateMutability": "view",
      "type": "function"
    },
    {
      "inputs": [],
      "name": "proxyOwner",
      "outputs": [
        {
          "internalType": "address",
          "name": "owner",
          "type": "address"
        }
      ],
      "stateMutability": "view",
      "type": "function"
    },
    {
      "inputs": [
        {
          "internalType": "address",
          "name": "_newOwner",
          "type": "address"
        }
      ],
      "name": "transferProxyOwnership",
      "outputs": [],
      "stateMutability": "nonpayable",
      "type": "function"
    },
    {
      "inputs": [
        {
          "internalType": "address",
          "name": "_impl",
          "type": "address"
        }
      ],
      "name": "upgradeTo",
      "outputs": [],
      "stateMutability": "nonpayable",
      "type": "function"
    },
    {
      "stateMutability": "payable",
      "type": "receive"
    }
  ],
  "bytecode": "0x608060405234801561001057600080fd5b506100203361002560201b60201c565b610051565b60007f41abdf0bc588410884c48a0fda5e2a0b74e12008127712c9a6c9ef14b05dadeb90508181555050565b6104fb806100606000396000f3fe6080604052600436106100435760003560e01c8063025313a21461005c5780633659cfe6146100875780635c60da1b146100b0578063f1739cae146100db57610052565b3661005257610050610104565b005b61005a610104565b005b34801561006857600080fd5b5061007161011e565b60405161007e9190610407565b60405180910390f35b34801561009357600080fd5b506100ae60048036038101906100a991906103ac565b61014c565b005b3480156100bc57600080fd5b506100c56101cd565b6040516100d29190610407565b60405180910390f35b3480156100e757600080fd5b5061010260048036038101906100fd91906103ac565b6101dc565b005b61010c610297565b61011c610117610299565b6102c7565b565b6000807f41abdf0bc588410884c48a0fda5e2a0b74e12008127712c9a6c9ef14b05dadeb9050805491505090565b61015461011e565b73ffffffffffffffffffffffffffffffffffffffff163373ffffffffffffffffffffffffffffffffffffffff16146101c1576040517f08c379a00000000000000000000000000000000000000000000000000000000081526004016101b890610422565b60405180910390fd5b6101ca816102ed565b50565b60006101d7610299565b905090565b6101e461011e565b73ffffffffffffffffffffffffffffffffffffffff163373ffffffffffffffffffffffffffffffffffffffff1614610251576040517f08c379a000000000000000000000000000000000000000000000000000000000815260040161024890610422565b60405180910390fd5b600073ffffffffffffffffffffffffffffffffffffffff168173ffffffffffffffffffffffffffffffffffffffff16141561028b57600080fd5b6102948161033f565b50565b565b6000807ffede9e42e1fa6028f70c9467c66f74b1840d179d4e78cd28a66d5f518a70a7ae9050805491505090565b3660008037600080366000845af43d6000803e80600081146102e8573d6000f35b3d6000fd5b60006102f7610299565b90508173ffffffffffffffffffffffffffffffffffffffff168173ffffffffffffffffffffffffffffffffffffffff16141561033257600080fd5b61033b8261036b565b5050565b60007f41abdf0bc588410884c48a0fda5e2a0b74e12008127712c9a6c9ef14b05dadeb90508181555050565b60007ffede9e42e1fa6028f70c9467c66f74b1840d179d4e78cd28a66d5f518a70a7ae90508181555050565b6000813590506103a6816104ae565b92915050565b6000602082840312156103be57600080fd5b60006103cc84828501610397565b91505092915050565b6103de81610453565b82525050565b60006103f1600f83610442565b91506103fc82610485565b602082019050919050565b600060208201905061041c60008301846103d5565b92915050565b6000602082019050818103600083015261043b816103e4565b9050919050565b600082825260208201905092915050565b600061045e82610465565b9050919050565b600073ffffffffffffffffffffffffffffffffffffffff82169050919050565b7f4e6f742050726f7879206f776e65720000000000000000000000000000000000600082015250565b6104b781610453565b81146104c257600080fd5b5056fea2646970667358221220e047002fc738ce80a62d47c60e11339b1c2e382c46c0b4c96b86846dd395305a64736f6c63430008040033",
  "linkReferences": {},
  "deployedLinkReferences": {}
}